:100000000C947C050C94C3050C94C3050C94161B2E
:100010000C94C3050C94C3050C94C3050C94C30540
:100020000C94C3050C94C3050C94112C0C94E52C72
:100030000C9448270C94C3050C94C3050C94C30579
:100040000C94C3050C94C3050C94C3050C94C30510
:100050000C94C3050C949F270C94C3050C94C30502
:100060000C94C3050C94C3050C94C3050C94C305F0
:100070000C94C3050C94C3050C94C3050C94C305E0
:100080000C94C3050C94C3050C94C3050C94C305D0
:100090000C94C3050C94C3050C94C3050C94C305C0
:1000A0000C94C3050C94C3050C94C30529001E00D1
:1000B0001F002000210022002B0014001A0008005D
:1000C00015001700E00004001600070009000A00F0
:1000D000E1001D001B000600190005000000E20001
:1000E000E300095D2C00A80035002700260025004C
:1000F000240023002D00130012000C0018001C0027
:10010000340033000F000E000D000B00E500380036
:1001100037003600100011000000E7002A000A5DD9
:100120002800300001000100010001000100010071
:100130003A003B003C003D003E003F0035001E02FF
:100140001F02200221022202010001000100010021
:100150000100010000000100010001000100010098
:100160000100010001000100010001004500440000
:1001700043004200410040003502270226022502CA
:1001800024022302310230022F022E022D0200002F
:100190000000010001000100010001000100010058
:1001A000010001000100010035001E001F002000B9
:1001B000210022003A003B003C003D003E003F0091
:1001C000400041004200430044004500000001009F
:1001D0000100010001000100010001000100010017
:1001E0000100010001002700260025002400230053
:1001F00000004F005200510050000000310030005C
:100200002F002E002D002E02000001000100010031
:1002100001000100000000000000000000000000DC
:1002200000000000000000000000000000000000CE
:1002300000000000000000000000000000000000BE
:1002400000000000000001000100010001000000AA
:10025000CD5CCF5CD15CD35CD55C0000CE5CD05C67
:10026000D25CD45C00000000C95CC75CC55CC25CA9
:1002700000000000CA5CC85CC65CC35C00000000F3
:1002800000000100010001000100000032190A0015
:10029000047F3F1F643214643214783C1E1E140A1B
:1002A000052223252628292A2C2D2F3032333536B6
:1002B000383A3B3D3E4042434547494A4C4E5051F7
:1002C000535557595A5C5E6062646668696B6D6F1E
:1002D00071737577797B7D7F81838587898A8C8E21
:1002E00090929496989A9C9E9FA1A3A5A7A8AAAC29
:1002F000AEAFB1B3B4B6B8B9BBBCBEBFC1C2C3C563
:10030000C6C7C9CACBCCCDCED0D1D2D2D3D4D5D604
:10031000D7D7D8D9D9DADADBDBDBDCDCDCDCDCDD37
:10032000DDDDDDDCDCDCDCDCDBDBDBDADAD9D9D81B
:10033000D7D7D6D5D4D3D2D2D1D0CECDCCCBCAC9B3
:10034000C7C6C5C3C2C1BFBEBCBBB9B8B6B4B3B1E2
:10035000AFAEACAAA8A7A5A3A19F9E9C9A9896947D
:1003600092908E8C8A89878583817F7D7B79777552
:1003700073716F6D6B6968666462605E5C5A595731
:10038000555351504E4C4A4947454342403E3D3BF0
:100390003A3836353332302F2D2C2A29282625237A
:1003A00022FFAA7F55400001010101010101010165
:1003B0000202020202020202020303030303030316
:1003C00003040404040404040505050505060606E3
:1003D0000606070707070708080808090909090AA0
:1003E0000A0A0B0B0B0C0C0C0D0D0D0E0E0E0F0F45
:1003F0000F101011111112121313141415151616D3
:100400001717181819191A1A1B1B1C1D1D1E1E1F41
:100410002020212222232424252626272829292A90
:100420002B2C2D2D2E2F30313232333435363738B8
:10043000393A3B3C3D3E3F404142434445464748B4
:10044000494A4C4D4E4F50515354555658595A5B8A
:100450005D5E5F616264656668696B6C6D6F70722A
:10046000737577787A7B7D7E8082838587888A8C96
:100470008E8F91939596989A9C9EA0A2A3A5A7A9CA
:10048000ABADAFB1B3B5B7BABCBEC0C2C4C6C9CBC1
:10049000CDCFD1D4D6D8DBDDDFE2E4E7E9EBEEF077
:1004A000F3F5F8FAFDFF00AE00AF00DA02818FD954
:1004B000F1DB40A4A62EAF00A0C000A1C800AED5BD
:1004C00080A81FD300408D14200000000000000011
:1004D0003E5B4F5B3E003E6B4F6B3E001C3E7C3EE6
:1004E0001C00183C7E3C18001C577D571C001C5EED
:1004F0007F5E1C0000183C180000FFE7C3E7FF0008
:10050000001824180000FFE7DBE7FF0030483A0638
:100510000E00262979292600407F05050700407F27
:1005200005253F005A3CE73C5A007F3E1C1C080052
:10053000081C1C3E7F0014227F2214005F5F005FB6
:100540005F0006097F017F00006689956A00606090
:100550006060600094A2FFA2940008047E0408007A
:1005600010207E20100008082A1C0800081C2A08F9
:1005700008001E10101010000C1E0C1E0C0030384D
:100580003E383000060E3E0E06000000000000005F
:1005900000005F000000000700070000147F147FC8
:1005A0001400242A7F2A12002313086462003649AB
:1005B00056205000000807030000001C22410000E4
:1005C0000041221C00002A1C7F1C2A0008083E084B
:1005D00008000080703000000808080808000000CB
:1005E000606000002010080402003E5149453E00B2
:1005F00000427F4000007249494946002141494D6F
:1006000033001814127F10002745454539003C4A35
:10061000494931004121110907003649494936004D
:10062000464949291E000000140000000040340023
:100630000000000814224100141414141400004196
:10064000221408000201590906003E415D594E007E
:100650007C1211127C007F49494936003E414141DC
:1006600022007F4141413E007F49494941007F09C5
:10067000090901003E41415173007F0808087F00CD
:1006800000417F4100002040413F01007F081422CB
:1006900041007F40404040007F021C027F007F04F9
:1006A00008107F003E4141413E007F0909090600D4
:1006B0003E4151215E007F091929460026494949DA
:1006C000320003017F0103003F4040403F001F20F4
:1006D00040201F003F4038403F006314081463006F
:1006E0000304780403006159494D4300007F4141F0
:1006F0004100020408102000004141417F00040233
:100700000102040040404040400000030708000090
:100710002054547840007F284444380038444444EE
:100720002800384444287F003854545418000008E6
:100730007E0902001824241C78007F080404780035
:1007400000447D4000002040403D00007F102844D0
:10075000000000417F4000007C04780478007C08A1
:10076000040478003844444438007C1824241800D9
:10077000182424187C007C080404080048545454AD
:10078000240004043F4424003C4040207C001C2002
:1007900040201C003C4030403C00442810284400CD
:1007A0004C9090907C004464544C440000083641C6
:1007B0000000000077000000004136080000020140
:1007C000020402003C2623263C00000000000080BA
:1007D000808080000000000080E070180C1830E07D
:1007E00080000010F8901030783010B8FC381000FD
:1007F0000000000000F8FCF800000000000000000D
:1008000000000000001C9C1C00000000F8FCF80028
:1008100000000000001CFCF8C00000000000008088
:10082000E0F87C1C000000F0FCFCFC1C1C1C1C1CE8
:100830001C1C1C000000000000C0F0F8381C1C1C30
:100840001C1C1C3CF8F0E000E0F0F0F0E0ECEEF7EF
:10085000F37020007C7C7C7E007E7E7E7F7F7F002C
:100860000080C0E07E5B4F5BFEC00000C000DCD7B4
:10087000DEDEDED7DC00C00000000000000000006B
:100880000000000000000000000000000000000F59
:10089000BCE0818181838382870C183060C00000B6
:1008A0001FFE90B9FFBB91983C1811133F11000037
:1008B0000000000000FFFFFF00000000000000003B
:1008C0000000000000FFFFFF00000000FFFFFF002E
:1008D00000000000000000030F7FF8E080F0FC3F04
:1008E0000F0100000000003F3F3F1C1C1C1C1C3C73
:1008F00078F8F0E08000000000C3E7FF7E3C387825
:10090000787070F8FFDF87000F1F3F7F7F7F7F7F4A
:100910003F1E0C001F1F1F3F003F3F3F7F7F7F0098
:10092000307B7F7830202030787F3B0003000F7FC2
:100930000F0F0F7F0F0003000000000000000000F9
:1009400000000000000000000000183C2466634125
:10095000C18180808080808081C14162386C4CC6BA
:100960008181808080808081C14362361C180000B4
:100970000000000000FFFFFFC0C0C0C0C0C0C0C07A
:10098000C0800000007FFF7F000000007FFFFFC0ED
:1009900080000000E0E0C0C0C0E0F97F1F07000059
:1009A0000000000000000070F0E0E0C0C0C0C0E047
:1009B000F0F87F3F0F0000000F3F7FF9E0E0C0C07C
:1009C000C0C0C0E0F97F3F1F000000000000000031
:1009D0000000000000000000000000000000000017
:1009E0000000000000000000000000000000000007
:1009F00000000000000000000000000000000000F7
:100A000000000000000000000000040330000000AF
:100A10000E034C0069006C007900350038000000BE
:100A2000120346005F00590055005500430048007E
:100A3000490000000403090409023B00020100A070
:100A4000FA0904000001030101000921110100015C
:100A50002240000705810308000A09040100010380
:100A60000000000921110100012232000705820364
:100A700020000A120110010000000851FC5800007B
:100A8000010102030105010980A101850319012A61
:100A9000B700150126B700950175108100C0050C3F
:100AA0000901A101850419012AA002150126A0024D
:100AB000950175108100C005010906A101050719FE
:100AC000E029E7150025019508750181029501755A
:100AD0000881010507190029FF150026FF0095066A
:100AE0007508810005081901290595057501910210
:100AF000950175039101C00011241FBECFEFDAE00C
:100B0000DEBFCDBF04B603FE27C08091B80690912A
:100B1000B906A091BA06B091BB068730904BA740AA
:100B2000B04BD1F41092B8061092B9061092BA06E2
:100B30001092BB0614BE84B7877F84BF0FB6F894AB
:100B4000A895809160008861809360001092600099
:100B50000FBEE0E0F8E3099512E0A0E0B1E0E4E2C6
:100B6000F6E602C005900D92A63CB107D9F726E043
:100B7000A6ECB2E001C01D92A83BB207E1F70E94CB
:100B800042290C94D8320C94000080911604909164
:100B90001704A0911804B091190484309105A1059F
:100BA000B105E1F128F50097A105B10571F167E9FB
:100BB00071E082309105A105B10549F1BF93AF9372
:100BC0009F938F9382EB91E09F938F931F9288E185
:100BD0008F938AE394E09F938F930E94572F8DB752
:100BE0009EB70A960FB6F8949EBF0FBE8DBF13C076
:100BF00088309105A105B10529F08E309105A10538
:100C0000B105E1F664EA71E002C06BE771E08AE3E6
:100C100094E00E94502F8AE394E008956AE871E01E
:100C2000F6CF84E091E00895CF93C0E28C33910534
:100C300020F4FC01EC52FE4FC0811F92CF939F9392
:100C40008F93FB0180811F928F9381811F928F93DD
:100C500083EC91E09F938F931F9288E18F938DEDAA
:100C600092E09F938F930E94572F8DB79EB70E9659
:100C70000FB6F8949EBF0FBE8DBF8091C6029091B3
:100C8000C702449761F41092C7021092C602E8ECC2
:100C9000F2E080E2819392E0EC3DF907D9F7809190
:100CA000C6029091C702FC01E853FD4FC083019634
:100CB0009093C7028093C602CF9108958DED92E084
:100CC000089588EC92E008950C94E2068F929F922A
:100CD000AF92BF92CF92DF92EF92FF920F931F934A
:100CE000C12CD12C7601C3949701860104C0000F5A
:100CF000111F221F331F6A95D2F74601570104C006
:100D0000880C991CAA1CBB1C8A95D2F7D501C4017A
:100D1000802B912BA22BB32B00911604109117045A
:100D20002091180430911904082319232A233B2306
:100D300080179107A207B30769F4842F1F910F91C1
:100D4000FF90EF90DF90CF90BF90AF909F908F90EB
:100D50000C94B423842F1F910F91FF90EF90DF909C
:100D6000CF90BF90AF909F908F900C94D52380919F
:100D70006A04869590E090935304809352040895FA
:100D8000CF93C82F0E94280B811101C0C2E08C2F85
:100D9000CF9108950E94280B882379F00E94C50501
:100DA00060E00E9424160E945E0660E00E94241605
:100DB0000E94610660E00C9424160E94110660E017
:100DC0000C9408160F931F93CF93DF938C01EB01C4
:100DD0008A81882319F0C8010E94140609308DE524
:100DE000180709F150F408301D45A9F0C1E08C2F17
:100DF000DF91CF911F910F9108950A308DE518076B
:100E0000F1F00B301D4591F7CA8183E0CC2311F13D
:100E10000E94B42306C0CA81CC2349F380E00E941B
:100E20008207C0E0E4CFCA8181E0CC2359F00E9460
:100E3000B42343E062E081E00E946606F2CFCA81FB
:100E400082E0F3CF0E94D52343E062E081E00E947C
:100E50006606CDCF0E94D523CACF811106C089EA8C
:100E6000611101C08AEA0C94D11D089581E00895B2
:100E700008950C9438071F93CF93DF9300D000D0D0
:100E80000F92CDB7DEB749835A836B833091B50398
:100E900089819A8131111DC06623B9F02223A9F0FE
:100EA0000E94A724182F682F89819A810E945024BC
:100EB00069817A81812F0F900F900F900F900F9082
:100EC000DF91CF911F910C9400080E947E24182F6F
:100ED000EFCF0E94A72469817A81EDCFFC01262FF4
:100EE000408151816281738184810C943B07CF934F
:100EF000DF93EC0160E00E946E07BE01DF91CF91AD
:100F00000C943907CF93DF93C1E0D0E002C0CC0F3F
:100F1000DD1F8A95E2F78C2F0E94F125BE0190E03B
:100F200080E0DF91CF910C9452230E94DE25811145
:100F300002C00E9480260C94DA090C94DD09089501
:100F40000C949F0781E008950C94A207CF93C82FBB
:100F50000E94A0078C2FCF910C94A40708950E94A3
:100F600044200E94AE072FEF84E39CE02150804094
:100F70009040E1F700C000000C94C3270F931F932B
:100F8000CF93DF93EC0161E00E946E078C01BE01FC
:100F90000E946406882359F1BE01C8010E94E91726
:100FA000882329F1BE01C8010E942A188823F9F07C
:100FB000BE01C8010E944D198823C9F0BE01C801B5
:100FC0000E945813882399F08A81882339F00115EB
:100FD0008CE5180751F00E3D1C4579F0CE01DF91EC
:100FE000CF911F910F910C9436070E94AF0780E0BC
:100FF000DF91CF911F910F9108950E948026F7CF26
:10100000972F70E026E0929F600D711D1124FB0167
:101010009CE3899FE00DF11D1124EE0FFF1FE455A5
:10102000FF4F859194910895CF93DF930E9400081C
:101030000E940009EC01811522E59207E8F581156F
:1010400031E5930708F0ACC0883E910510F5803E6D
:10105000910570F5883A910570F4853A910508F08C
:1010600078C08130910521F1009711F1049700F5C6
:10107000D0E0C0E01DC08F3B9105D0F7C85AD0E04A
:10108000CC0FDD1FC05FDD4F0990D881C02DD46427
:101090000FC0811540E5940708F066C0C11580E4D3
:1010A000D80708F05EC0CE019A9581159F4100F7E0
:1010B000CE01DF91CF910895811536E5930718F59C
:1010C000811545E5940708F083C0C11584E5D8076C
:1010D00008F079C09C2F969596959E012370332732
:1010E000C115D34508F461C0C1E0D0E002C0CC0F07
:1010F000DD1F2A95E2F730E2939FC0011124C82B2F
:10110000D92BDA68D5CFC1158AE5D80778F4C1158F
:1011100099E5D90708F066C0C11528E5D20708F49B
:10112000A7CFDC2FCC27C06FD06AC2CFCE0190569C
:101130008115904208F09CCF8D2F8F710E949709E6
:1011400090E0982F882788279F719C012C2BE9011C
:1011500047C0C55AD0E0C25CDD4FC881D0E0D06442
:10116000A7CFDF70D06AA4CFE4E096958795EA9583
:10117000E1F783702C2F26952695237040E2249F5B
:1011800090011124382B8C2F8370C1E0D0E002C075
:10119000CC0FDD1F8A95E2F7C22BD32BDC6888CFFA
:1011A000D82FCC27C16FD06A83CFC1E0D0E002C076
:1011B000CC0FDD1F2A95E2F720E2929FC001112497
:1011C000C82BD92BEBCFDC2FCC27C46FD06A70CFC4
:1011D0000E949709C82FD0E0DC2FCC27CC27DF71E5
:1011E000D06266CF8C2F8F700E94970934E0D6951D
:1011F000C7953A95E1F7CF709C2FEC01D06958CF95
:1012000082389105B1F1B0F48133910509F475C0CC
:1012100048F48932910509F469C08A32910509F4CC
:1012200073C008958533910509F459C08933910538
:1012300001F10895833E9105A9F138F4803E9105AE
:10124000F9F0823E910549F10895863E9105A9F194
:10125000873E9105C9F1843E910519F52091AA06B2
:1012600021FF1FC08091A90684FD14C087EE90E085
:1012700008952091A9062370A1F080EE90E00895D2
:101280002091A90620FD47C03091AA0630FF09C071
:1012900024FF44C090E080E004C02091A90622FD14
:1012A000F7CF08952091A90622FD3BC03091AA06F0
:1012B00030FDE3CF24FFF5CFEDCF2091A90623FF2A
:1012C000F0CF24FDE7CFD2CF2091A90623FD2CC07B
:1012D0003091AA0631FFEECF84EE90E00895209180
:1012E000A90625FFDECF89E290E008952091A906A6
:1012F00025FFD7CF85E390E008952091A90626FF2A
:10130000D0CF8AE290E008952091A90626FFC9CFA8
:1013100081E390E0089589E390E0089583EE90E002
:10132000089582EE90E0089586EE90E00895909101
:10133000A90692FF06C0282F28712830F9F4877F6C
:10134000846093FF06C0282F28712831F1F4877E2E
:1013500084612091AA0620FF06C0382F38713830EA
:10136000D9F4877F816021FF06C0282F287128319A
:10137000D1F4877E816194FD877E0895282F2471A2
:101380002430F9F68B7F8860DCCF282F247124313C
:1013900001F78B7E8861DDCF382F3171313019F73D
:1013A0008E7F8860E0CF282F2171213121F78E7E3A
:1013B0008861E1CF0C94B70608950C94DC09E82FFE
:1013C000F0E0E25AFB4F80810895089580EA8A9503
:1013D000F1F7089508950E94460B80914401809191
:1013E000440195E0811190E09093690485E0891BA8
:1013F00080936804A7E4B2E061E070E08D91E82F8B
:10140000E295EF70F0E041A18F709B0101C0220FC7
:101410008A95EAF7922F9095942391A382A1822B2B
:1014200082A382E0AC34B80749F7A1E4B2E061E0FE
:1014300070E08D91E82FE295EF70F0E041A18F70A0
:101440009B0101C0220F8A95EAF7922F9095942371
:1014500091A382A1822B82A382E0A734B80749F727
:10146000E4E5F4E0AEE5B4E08EE594E011921D927F
:101470008E179F07D9F785E00E94F10A0E94950711
:101480000C945B0B0E94280B8823F9F08091680470
:1014900090E0825A9B4F0E948B0B811113C0809168
:1014A000F5028F5F8093F502863050F0E09168047A
:1014B000F0E0E25AFB4F10821182128213821482F2
:1014C0000C949D071092F502FBCF8091690490E087
:1014D000825A9B4F0E94AC0B0C94EA098F929F9208
:1014E000AF92BF92CF92DF92EF92FF920F931F9332
:1014F000CF93DF9387E4A82E82E0B82E04E514E0B2
:10150000912CCC24C394D12CF50181915F01C82F7B
:10151000C295CF70D0E099A18F70760101C0EE0C1A
:101520008A95EAF7892F8E2989A38AA18E2C809427
:1015300088218AA30E94E609E1E4F2E050E040E05D
:1015400020E03191A32FA295AF70B0E090968C91DE
:1015500090E03F7002C0959587953A95E2F780FD3F
:101560003CC08C2D042E01C0880F0A94EAF7282B6A
:101570004F5F5F4F4630510521F789A1882289A22C
:101580008AA1E82AEAA2F8018081281741F1208384
:1015900081E0982A0F5F1F4FFCE4AF16F2E0BF0610
:1015A00009F0B2CF6091690470E0625A7B4F292D37
:1015B00045E084E594E00E94F20A0E94420A892DE7
:1015C000DF91CF911F910F91FF90EF90DF90CF901F
:1015D000BF90AF909F908F90089580E0C8CF80E03B
:1015E000D8CF0895FF920F931F93CF93DF93F82ED8
:1015F000092F162FD72FC42F222349F081E0809383
:10160000F8020E9478279093F7028093F602809167
:10161000F8028823A1F08091F6029091F7020E94CF
:101620009027069760F0EF2DF02FA12FBD2FCE0F42
:10163000DF2FD11DEC17FD0741F41092F802DF9166
:10164000CF911F910F91FF90089581918D93F2CFCB
:101650008091F902811111C08091D800806180933E
:10166000D8008AE18A95F1F700C09091D900892FBE
:10167000817090FF82E08093F90281E09091F902FD
:10168000913009F080E008950C94280B0E94440BDF
:10169000809344018091440168E0882349F080E010
:1016A0000E94580C0E94280B882321F00C94620B96
:1016B00088E0F6CF08950E94280B811102C00C9497
:1016C000680B089562E070E085E491E00C94C31A21
:1016D00062E070E085E491E00C94CC1A0E94151150
:1016E000882361F082E093E00E941B1181E090E08A
:1016F0000E94A51B892B11F40C9418110895809158
:101700000103883039F460E082E093E00E943312F4
:10171000109201030895CF93DF93D82FC92F0E9411
:101720006E0B90E080E00E94A51B009799F4ED2FCE
:10173000FC2FDC01A550BD4F2C91219301968530E3
:101740009105B9F780E093E00E94671481E0DF9192
:10175000CF91089580E0FBCFCF93DF93D82FC92F8F
:101760000E947F0BED2FFC2F90E080E02191DC01A7
:10177000A550BD4F2C93019685309105B9F780E0B7
:1017800093E0DF91CF910C945E14AF92BF92CF9211
:10179000DF92FF920F931F93CF93DF93362F472F44
:1017A000E82FF0E0EA55FC4F71110DC06491762FDF
:1017B000862FDF91CF911F910F91FF90DF90CF90F7
:1017C000BF90AF900895C72FD0E02491F22E022F42
:1017D00010E056E0659FC0011124EFEFF0E0BF017B
:1017E0000E94A32E832F90E0880F991F35E5369F26
:1017F000D001379FB00D11248A1B9B0B982F990F96
:10180000980F6F01CC1ADD0AC09ED001C19EB00DA9
:10181000D09EB00D11248B2F949FA0011124452F31
:1018200055276F01C41AD50AC09EA001C19E500D54
:10183000D09E500D11245F01A91AB108AC9E600121
:10184000AD9ED00CBC9ED00C1124CD2CDD24EC1907
:10185000FD09E09FE001E19FD00DF09FD00D112424
:10186000ED2F62307105A1F048F46115710569F042
:101870006130710589F0EB2F852F07C06430710549
:1018800071F088F066307105B1F76E2F722F91CF2D
:10189000E22F2B2F8D2FF9CFE22F252FF6CFEB2F15
:1018A000822F2D2FF2CF2B2F8F2DE52FEECF0895E6
:1018B000E7E5F1E0808361830895CF93DF93762F8E
:1018C000E901682F842F0E94C50B798368838A837E
:1018D000DF91CF91089580916A04982F9E7F29F41B
:1018E0008170826080936A0408958635E8F3817080
:1018F0008465F8CF88E090E00C94FE31CF92DF92BF
:10190000EF92FF926B017C010E946B0CB701A60164
:1019100088E090E0FF90EF90DF90CF900C941C3225
:10192000EAE6F4E083E0808311828FEF8283838391
:101930001482A7E6B3E012968C91129783601296F8
:101940008C9360817181828193810C947E0C809153
:101950006A0480FF02C08695089580E00895809112
:101960006E04833018F48F5F80936E0460916A0474
:1019700070916B0480916C0490916D040C947E0CBA
:1019800080916E04882319F0815080936E046091D9
:101990006A0470916B0480916C0490916D040C94B6
:1019A0007E0C70E00C94C7136091580180916A041A
:1019B00080FF0AC08091570123E0829FC00111245B
:1019C00081599B4F0C94D10C8091590190915A01EF
:1019D00023E0829FF0011124E159FB4F891750F752
:1019E0001182108212828F5F3396F8CF90916A0431
:1019F00090FF14C09091590120915A0133E0939FB8
:101A0000F0011124E159FB4F921710F00C94D40C03
:101A10008183608342839F5F3396F6CF0895CF938F
:101A2000DF9300D00F92CDB7DEB790916A0490FF9C
:101A30000AC09E012F5F3F4F0E945D0C4B81698160
:101A40008A810E94F60C0F900F900F90DF91CF913A
:101A50000895CF93DF93EC01EC81F0E0EF55FD4F5B
:101A60004491EAE6F4E0628181810E940F0D8C814D
:101A70008F5F8C83DF91CF910895CF93DF93EC013B
:101A8000EAE6F4E0438162818C810E940F0D8C8133
:101A90008F5F8C83DF91CF9108950F931F93CF9326
:101AA000DF9300D00F92CDB7DEB78C0180910A038F
:101AB00081110AC09E012F5F3F4F4FEF6FEF0E94D1
:101AC0005D0C8A8180930A03F8016481613069F0BA
:101AD00080910A0340E0662361F040E0623011F437
:101AE00040910A0380E060E004C060910A0340E096
:101AF00080E00E94F60CF801848190E0019663E09A
:101B000070E00E94B72E84830F900F900F90DF91AA
:101B1000CF911F910F910895AF92BF92CF92DF9214
:101B2000EF92FF920F931F93CF93DF9300D00F920A
:101B3000CDB7DEB7182FF62E042FE22E90916A044F
:101B400090FF3AC0E92FE695AE2FB0E0AF5ABD4FF7
:101B50008C91809367039E7F9230E1F59E012F5F09
:101B60003F4F812F0E945D0C4B8169818A810E94C9
:101B7000F60C80916B04811308C080916C048F1166
:101B800004C080916D04801729F080916903826000
:101B90008093690310936B04F0926C0400936D04BE
:101BA000EE2051F060916A0470916B0480916C0496
:101BB00090916D040E947E0C0F900F900F90DF911A
:101BC000CF911F910F91FF90EF90DF90CF90BF903A
:101BD000AF900895823019F400916D04CACF863019
:101BE00019F410916B04C5CF8930D9F3893109F606
:101BF000E9518E2F8170D82EE695F0E0EF55FC4F1D
:101C0000A590B490C12CBB2460915B01C61618F05E
:101C10000E94D40CAECF2C2D30E0A29EC001A39E1A
:101C2000900DB29E900D112470E00E94A32E812F82
:101C3000D11013C0860F40915901420F532F511DEF
:101C40009A01220F331F240F351F21593B4F402F7C
:101C50006F2D0E945D0CC394D7CF861BECCFEAE6B4
:101C6000F4E09181282F4381628188E0890F0C94F0
:101C70008C0D81E00C942F0EEAE6F4E09181282F80
:101C80004381628188EF890F0C948C0D81E00C9464
:101C90003C0EEAE6F4E0628121E1620F08F46FEFA6
:101CA000282F438181810C948C0D81E00C94490E86
:101CB000EAE6F4E0628121E1621B08F460E0282F8B
:101CC000438181810C948C0D81E00C94580EEAE6DE
:101CD000F4E0438121E1420F08F44FEF282F6281A5
:101CE00081810C948C0D81E00C94670EEAE6F4E09F
:101CF000438121E1421B08F440E0282F6281818169
:101D00000C948C0D81E00C94760E20E00C948C0DDC
:101D1000EF92FF921F93CF93DF93EC0110E0EE243C
:101D2000EA94F12C60915B01161770F00E94D40CBC
:101D30009A818C8190FF27C08F5F8C83DF91CF9138
:101D40001F91FF90EF90089520915901422F410F6C
:101D50005527551FCA019A01220F331F280F391F1B
:101D600021593B4F70E0C7010E94B72E962F8C81FE
:101D700040916D0460916C04199F800D11240E94A4
:101D80005D0C1F5FCFCF8150D8CF9F92AF92BF9293
:101D9000CF92DF92EF92FF920F931F93CF93DF9337
:101DA000EC018A81BB24BA9480FD02C0BB24B394A9
:101DB0008C8181110AC081E0B81227C080915B013B
:101DC000815080930C0381E08C83A12C80915B0176
:101DD000A816F0F00E94D40C80910C0391E0B91287
:101DE0005DC0811156C080915B01815080930C03CE
:101DF0001C82DF91CF911F910F91FF90EF90DF90A8
:101E0000CF90BF90AF909F90089510920C03DBCFBE
:101E100000915901CA2CD12C0C0D1D2D111DC8018A
:101E2000880F991F080F191F01591B4FF8011182C4
:101E30001082128234E0E32EF12C912C80910C035D
:101E4000890D813104F18F70082E000C990BC81692
:101E5000D90691F480916D048E9DA0018F9D500D47
:101E600011245595479555954795980160916C04B7
:101E700080916B040E945D0C9B0CF1E0EF1AF1085D
:101E8000E9F6A394A3CF87FFDFCF90915B01890F81
:101E9000DBCF815080930C03BC82ABCF90E00196E6
:101EA00060915B0170E00E94B72E80930C038C83DD
:101EB000A0CFEF92FF920F931F93CF93DF93EC018C
:101EC0008C81811109C081E08C8310920B0392E018
:101ED00090935601809355018091590190915A0138
:101EE00023E0829FF0011124E159FB4F891768F12B
:101EF00010E003E060915B01161768F10E94D40CBA
:101F00008091550120910B03280F20930B03909192
:101F10005601980F90935601191654F4022E000C96
:101F2000330B40915B014150550B2417350734F0BA
:101F3000819580935501813009F41C82DF91CF9106
:101F40001F910F91FF90EF900895118210821282DD
:101F50008F5F3396CBCFE12EF12C70E0C7010E944A
:101F6000B72E20915901820F482F50E020910B038A
:101F7000022E000C330BE216F306BCF02091560142
:101F8000022E000C330B2E153F057CF0809F900134
:101F9000112421593B4F40916D0460916C04809154
:101FA0006B040E945D0C1F5FA5CFFA01EE0FFF1FAF
:101FB000E40FF51FE159FB4F118210821282F3CF1B
:101FC0000F931F93CF93DF938C01FC018481958144
:101FD00001968170992795838483C0E0D5E580912F
:101FE0005B01C81730F0DF91CF911F910F910C94D6
:101FF000D40C20915901422F4C0F5527551FCA016F
:102000009A01220F331F280F391F21593B4F8C2F64
:102010008695F80144815581840F952F911D81701B
:1020200040916D0460916C048D9F802D11240E945D
:102030005D0CCF5FD4CF0F931F93CF93DF93EC0151
:1020400010E000E090915B019017110609F06CF42C
:102050000E94D40C8C8190E00196817099278C832A
:10206000DF91CF911F910F91089520915901A801FF
:10207000420F511D9A01220F331F240F351F215982
:102080003B4F4C8160916C0480916B049695901746
:10209000110651F04CF0442349F040916D040E9428
:1020A0005D0C0F5F1F4FCECF4423B9F340E0F7CF55
:1020B0008F929F92AF92BF92CF92DF92EF92FF9258
:1020C0000F931F93CF93DF93FC01B280948081E044
:1020D000848300E015E05BE4A52E88248394EE243D
:1020E000EA94F12C7BE4C72ED12C80915B01081778
:1020F00070F0DF91CF911F910F91FF90EF90DF90E3
:10210000CF90BF90AF909F908F900C94D40CC02F25
:10211000D0E01C9FF0011D9FF00D1124E05FFC4FEB
:1021200091101CC01382128220915901CE01820F9E
:10213000911D9C01220F331F280F391F21593B4F3E
:102140001C9FF0011D9FF00D1124E05FFC4F4281A8
:10215000618180810E945D0C0F5FC7CF23812223A4
:1021600079F12150238334818A2D821B311101C0E2
:10217000822F1C9FF0011D9FF00D1124E05FFC4F8A
:1021800090916D04899FC0011124B6010E94A32E75
:102190006283211104C0332311F01482A38222E050
:1021A0002B1510F21C9FF0011D9FF00D1124E05F14
:1021B000FC4F80916B04808380916C048183B4CF49
:1021C0000E941D2F823091400CF0AECF82E08B1523
:1021D00030F50E941D2FB7010E94B72E1C9FF00101
:1021E0001D9FF00D1124E05FFC4F808322E02B1532
:1021F000C8F40E941D2F20916C042695622F70E078
:102200000E94B72E280F1C9FF0011D9FF00D112476
:10221000E05FFC4F21831282A382848285CF80916C
:102220006B04DCCF20916C04EECF8091690308959C
:1022300010926903089525E0EAE6F4E0DC010190DC
:102240000D922A95E1F72091670330916803409140
:102250006903FC012583368347830895E7E6F3E0AD
:1022600011828281846082830895EAE6F4E08081AD
:102270008E7F80830E942E11E7E6F3E082818160E9
:1022800082832FEF80E792E0215080409040E1F779
:1022900000C000000C94D40CEAE6F4E080818E7F4C
:1022A000808360817181828193810E947E0C0E9473
:1022B0002E11E7E6F3E08281816082832FEF80E7D1
:1022C00092E0215080409040E1F700C000000C9463
:1022D000D40C60916A04669570E04BE050E08CE5A8
:1022E00091E00E94362F892B19F481E080936803D6
:1022F0000E94782790936103809360038091690323
:10230000846080936903089590916A0490FF3AC0B5
:10231000917081112DC0926090936A04809169033D
:10232000816080936903662351F060916A04709123
:102330006B0480916C0490916D040E947E0C6091FE
:102340006A04669570E04BE050E08CE591E00E94F5
:10235000362F892BA1F00E942E1181E08093630318
:1023600040916D0460916C0480916B040C94850E17
:102370008B3210F09465D0CF880F982BCDCF0E9470
:102380006911EBCF0895682F90916A04969581E0CA
:10239000890F8B3208F081E00C94841181E00C9459
:1023A000C311682F90916A0496958FEF890F09F4F5
:1023B0008AE20C94841181E00C94D11161E00C94B8
:1023C0008411EAE6F4E080818160808386950C9434
:1023D000DE1180916A0480FD0C944C110C94E11183
:1023E00060E00C94841180916603811133C00E94D7
:1023F000DE25811104C00E9480260E94900C0E945C
:102400007A0C60936A0470936B0480936C049093CD
:102410006D04809169038360809369036E7F61F42A
:102420000E94900C0E947A0C60936A0470936B0473
:1024300080936C0490936D040E946B0C0E942E118B
:1024400080916A0480FF03C086950E94F01181E0AC
:10245000809366030895EAE6F4E0808181608083DA
:1024600086950C94F0111F93CF93DF93EC01162FF8
:102470008F8180FF0CC0888180FF24C080916A0416
:10248000816080936A04888186950E9484118F817F
:1024900081FF06C0212F4B816A8189810E948C0DAA
:1024A0008F8182FF05C08E81882379F00E94691197
:1024B0008F8183FF03C081E080936303DF91CF911D
:1024C0001F9108950E943511E2CF0E942E11F0CF86
:1024D0000C942E11EF92FF920F931F93CF93DF93E3
:1024E00080916803882309F468C080916703E091B4
:1024F0006A04E695E81BE0936203823009F064C049
:10250000F0E0E356FD4FE491CE2FD0E009E21DE06C
:1025100080916303882389F0109263030E947827D7
:102520009E0120953095820F931F909361038093B5
:102530006003109265031092640380916003909190
:1025400061030E9490278C179D07B8F180910F03BB
:102550008823B1F010920F0380910D0390910E0328
:102560000E9490278033954758F00E9478279093D7
:102570000E0380930D038091690388608093690343
:10258000E0906403F0906503E0916003F0916103D3
:10259000CE0FDF1FD0936103C093600380E693E00A
:1025A000F80109958091640390916503892B29F4C2
:1025B000EF2819F081E080930F03DF91CF911F91F5
:1025C0000F91FF90EF900895863049F4F0E0E656C1
:1025D000FD4FE491CE2FD0E00DE31DE099CF89307F
:1025E00051F4E695F0E0E956FD4FE491CE2FD0E0AE
:1025F00008E81EE08DCF8F3051F4E695F0E0EC5600
:10260000FD4FE491CE2FD0E005EC1EE081CF853167
:1026100049F4F0E0EF56FD4FE491CE2FD0E009E50C
:102620001FE076CFC8EED3E000EE1FE0883109F45A
:102630006FCF833239F4EFE8F2E0C591D4910DE425
:102640001DE066CFC4EFD1E00BE110E1843209F464
:102650005FCFC0EDD7E007E51CE0853209F058CF29
:102660008E2F63E00E94972EE92FF0E0E457FD4F94
:10267000E491CE2FD0E008E510E14ACFFA018111B4
:1026800001C0FB010994CF93DF93C82FD62F0E947E
:10269000A70C8C1740F00E94A70C8D1720F4DF9137
:1026A000CF910C94CE118C2FDF91CF910C94DE1131
:1026B0001F93CF93DF93EC01FB011281111110C026
:1026C0000E943C258272FE01E25CFC45E431F1058A
:1026D00008F05BC0E652FD4C0C94CB2E0E94E91131
:1026E000812FDF91CF911F9108954BED51E16EEC59
:1026F00071E10E943E13F4CF4EEC51E16BED71E1BC
:10270000F8CF46E45EE069E37EE0F3CF49E35EE0C4
:1027100066E47EE0EECF44E65EE065E57EE0E9CF8C
:1027200045E55EE064E67EE0E4CF42E85EE063E734
:102730007EE0DFCF43E75EE062E87EE0DACF40ECA8
:102740005CE06FEA7CE0D5CF4FEA5CE060EC7CE0D7
:10275000D0CF81E00E94DE11C3CF65E082E00E940D
:102760004313BECF68E086E0FACF6EE089E0F7CF92
:1027700064E18FE0F4CF67E185E1F1CF88E1EACF52
:1027800062E289E1ECCF83E2E5CF11E0A9CF539A71
:102790004BB1477F5BB15860EFB7F8949B01220FB4
:1027A000331F260F371F280F391F2817390741F409
:1027B000EFBF8FE594E00197F1F700C000000895A6
:1027C000DC016D91CD0178E05BB9000000C067FFCE
:1027D0004BB9660F000000C000C000C04BB900C07C
:1027E0007A9591F7E2CF0C942D0785988D9A84986D
:1027F0008C9A8FB185FB882780F97C990EC090E078
:10280000892B80936F039091440181E098279093E6
:102810006B03891B80936A03089592E0F1CFCF93F5
:10282000E0916F03EE0FEE0FE0936F034FB145FBA6
:10283000882780F94FB144FB222720F944FF02C0CA
:1028400022E030E0822BE82BE0936F03C0916B0312
:10285000EF70F0E0E458FD4F808190916E03890F96
:1028600080936E0384306CF0EC2F0C2E000CFF0B69
:10287000E459FC4F80818F5F808360E08C2F0E9441
:10288000F31380916E038D3F6CF4EC2F0C2E000C33
:10289000FF0BE459FC4F80818150808361E08C2FD5
:1028A0000E94F31380916E03837887FF03C08150E9
:1028B0008C6F8F5F80936E03CF910895E0916B03CF
:1028C000F0E0E459FC4F2081FC0120830895FF9241
:1028D0000F931F93CF93DF93D0916A030D2F10E0D6
:1028E00004591C4FFC01C081F8018081C81BFC2EDB
:1028F0001F1464F08C2FC7FD80E0C81BC11110C0ED
:10290000DF91CF911F910F91FF900895FA94F801F4
:1029100080818F5F808360E08D2F0E94F313E8CF6A
:10292000CF5FF80180818150808361E08D2F0E940C
:10293000F313E4CFCF92DF92EF92FF920F931F93A6
:10294000CF93DF936C017B0164E670E088E70E941F
:102950007D19EC0197FD12C010E000E0F601E00FD8
:10296000F11F849164E670E00E94D919EC01892B73
:1029700029F40F5F1F4F0E151F0581F70E945C1A87
:10298000CE01DF91CF911F910F91FF90EF90DF90DB
:10299000CF900895EFE9F4E080E092E0DF019C0140
:1029A0001D9221503040E1F7F093A406E093A30676
:1029B0008FEF9FEF90939C0380939B0308950E9459
:1029C000C0068093970380FD0FC080E88093960334
:1029D0000E9477196DE070E08DEB94E00E949A14EC
:1029E000892B21F080E0089580E2F0CF8091970359
:1029F00063E070E081FD26C08AEB94E00E949A14A7
:102A0000892B81F76DE070E08AEA94E00E949A14C5
:102A1000892B41F70E948427605A75418F4F9F4F41
:102A200060939F067093A0068093A1069093A206E0
:102A30000E94CA1481E080939A03809399031092B4
:102A40009803089587EB94E0D9CF2091960336E060
:102A5000839FC0011124629F800D911D1124811557
:102A600022E0920714F090E080E081569B4F909313
:102A7000A4068093A30608952091A3063091A4068E
:102A80002959344040919603642F70E0C9010E9497
:102A9000A32E481B463010F4240F311D211582E06F
:102AA000380710F030E020E021563B4F3093A40669
:102AB0002093A30608951F93CF93DF93162F8A3098
:102AC00031F481E0DF91CF911F910C94D5158D30B9
:102AD00011F480E0F7CFC091A306D091A40696E050
:102AE000FE01A0E7B3E001900D929A95E1F7803ED8
:102AF000C8F086E0FE0111928A95E9F711111EC017
:102B0000C091A306D091A40646E050E0BE0180E744
:102B100093E00E94432F892BF9F4DF91CF911F910D
:102B20000C943C15F6E08F9FB001112466537B4F47
:102B300046E050E0CE010E942D2FE0CFE091A306A9
:102B4000F091A4069F012A5F3F4F2E173F07C1F265
:102B5000808180958193F9CFCF59D440CE0125E073
:102B6000969587952A95E1F721E030E0A90102C00A
:102B7000440F551F8A95E2F7CA0140919B0350917B
:102B80009C03842B952B269645E0D695C7954A95B0
:102B9000E1F702C0220F331FCA95E2F7822B932B75
:102BA00090939C0380939B03B8CFCF93382FE091F1
:102BB000A306F091A406EF59F44020919603622FEA
:102BC00070E0CF010E94A32E281B822F332369F0CF
:102BD00066E00E94972EC82FC15010F4CF9108953F
:102BE00060E080E20E945B15F7CF9F01280F311D46
:102BF0002115324018F080E0F0E0E0E08E0F9F2FCA
:102C0000911D81569B4F9093A4068093A306E6CF17
:102C1000FF920F931F93CF93DF93EC01F62EFC01ED
:102C200001900020E9F78F0101501109C017D10769
:102C300030F0DF91CF911F910F91FF9008956F2D8C
:102C400089910E945B15F2CF0E94081681E00C94D6
:102C5000D5150E948427605A75418F4F9F4F60930E
:102C60009F067093A0068093A1069093A206809180
:102C70009903811108C062E070E088EA94E00E9444
:102C80009A14892B19F080919903089581E080931B
:102C90009903F9CF2F923F925F926F927F928F921A
:102CA0009F92AF92BF92CF92DF92EF92FF920F93DB
:102CB0001F93CF93DF9320919B0330919C032115A9
:102CC000310531F08091980361E070E0882399F03C
:102CD000DF91CF911F910F91FF90EF90DF90CF90F8
:102CE000BF90AF909F908F907F906F905F903F903C
:102CF0002F9008958F5F082F10E01B01082E02C04F
:102D0000220C331C0A94E2F7A10142235323452BE2
:102D100089F39091970390FD44C08295880F807647
:102D200080936901980136952795369527952093CC
:102D30006C01815E80936A0110926D0124E630E09F
:102D400047E050E067E671E088E70E94081A892BA7
:102D500009F0BECFA80125E0440F551F2A95E1F7E1
:102D60008091970380FD2BC041565B4F04E610E035
:102D700020E230E060E488E70E942F1A892B09F0F6
:102D8000A7CF0E942916E101C095D09580919B03A1
:102D900090919C03C823D923D0939C03C0939B0399
:102DA00097CF880F880F880F8093690110926C016C
:102DB000895F80936A0183E080936D01BFCFE6E76E
:102DC000F3E080E2DF011D928A95E9F7A0E9B2E025
:102DD0000CE812E084E9C82E82E0D82E97E0592E44
:102DE000772473948D91E80129918E01240F352F5A
:102DF000311D21563B4FE82FF0E0EA58FC4F90E0A0
:102E000080E0652C681A872C082E01C0880C0A9473
:102E1000EAF77901A12CE701B9907E01B820662D6F
:102E20006A196770962E062E000C770BDB2D01C0F9
:102E3000DD0F9A94EAF771956195710967707727AC
:102E400001C0B6946A95EAF7BD2A6081962E9B2848
:102E50009082A39468E0A612DECF01963196883066
:102E6000910579F6CA16DB0609F0BCCF04E610E03E
:102E700020E230E046E753E07DCF8091990388233C
:102E800069F062E070E086EA94E00E949A14892B6F
:102E900019F08091990308951092990380919903F4
:102EA00091E0892708950F931F9380919A038823B7
:102EB00001F160E080E00E9425150E94CA060E9490
:102EC0004A16809199038823A1F00E9484270091DB
:102ED0009F061091A0062091A1063091A206601BCA
:102EE000710B820B930B97FD04C01F910F910C94F3
:102EF0003D171F910F9108950F931F93CF93DF9369
:102F0000C62FD42F022FFC0182818823C9F0609341
:102F10009F030E94782790939E0380939D0380E2F5
:102F20008C0F883008F050C0C77081E001C0880F56
:102F3000CA95EAF7DF91CF911F910F910C94E41D90
:102F400010919F03161335C080919D0390919E03AD
:102F50000E9490278436910560F5C0E2CD0F1D17C1
:102F6000B9F080E2810F883040F4177081E001C031
:102F7000880F1A95EAF70E94EB1DC83048F481E0EB
:102F80009D2F977001C0880F9A95EAF70E94E41D63
:102F9000802F0E94D11DC830B8F4D77081E001C0E5
:102FA000880FDA95EAF7DF91CF911F910F910C947A
:102FB000EB1D80E28C0F883038F4C77081E001C0CF
:102FC000880FCA95EAF7EFCFDF91CF911F910F914C
:102FD00008959C01CB01233F4CE5340731F190F477
:102FE000283DFCE53F07E9F0293D4CE5340769F150
:102FF000273D3C4579F426E241EE61EE0E947C17C4
:1030000080E00895253FFCE53F07B9F090F0263FAA
:103010003C45B9F0FC0182818823D1F010929F03D6
:10302000089527E245EE65EEE9CF26E241EE60EE37
:10303000E5CF27E245EE64EEE1CF26E241EE62EE17
:10304000DDCF27E245EE66EED9CF28E241E0EBCFB7
:1030500081E00895CF93DF93EC01FB018281882307
:1030600009F419C1C230FCE5DF07C0F1C6319CE5A7
:10307000D90730F09E012A5F3C452930310570F5B3
:103080000E94F6259093AA068093A906C031ECE52C
:10309000DE0709F4CFC008F05BC0C8308CE5D80764
:1030A00009F4B6C088F5C430ECE5DE0709F4A8C021
:1030B000C0F4C2308CE5D80709F49CC08091A90601
:1030C0008260C330DC4509F498C08091A9069091D4
:1030D000AA060E9404260E94442080E0DF91CF913E
:1030E00008958091A9068061C630ECE5DE0709F4F9
:1030F00084C08091A9068860C730DC4508F47DC093
:103100008091A906806279C0CC308CE5D80709F49B
:1031100089C070F48091A9068C60CA30ECE5DE07A6
:1031200009F46BC008F478C08091A9068E7F65C051
:10313000CE308CE5D80709F479C08091A9068B7F41
:10314000CF30DC4508F459C08091A9068F7E55C068
:10315000CB3FECE5DE0709F457C030F5C3318CE511
:10316000D80709F46FC078F4C131ECE5DE0709F443
:1031700065C0C231DC4509F0A8CF0E94442080918F
:10318000A9068F773AC0C5318CE5D80709F462C02B
:1031900008F476C08091AA068160CA3FDC4509F038
:1031A00094CF8093AA0691CFCF3FFCE5DF0709F4C7
:1031B0004DC088F48091AA068D7FCD3F9CE5D9074C
:1031C00081F38091AA068E7FCE3FDC4550F380913B
:1031D000AA068360E6CFC130FDE5DF0709F459C0D8
:1031E00008F444C080E0C230DD4509F06ECF0E9493
:1031F00082266BCF8091A90681608093A90665CF56
:103200008091A9068460F9CF8091AA068260C9CF17
:103210008091A9068064F1CF0E9444208091A90684
:103220008068EBCF8091A9068D7FE7CF8091A906BA
:10323000877FE3CF8091A9068F7DDFCF8091A9069C
:103240008F7BDBCF8091A906837FD7CF8091AA06A1
:103250008C7FA7CF8091A90682FB992790F921E066
:10326000922790FB82F990FB83F9C7CF8091AA0641
:10327000982F909591708E7F892B90FB81F991CF3B
:103280000E9444209091A906892F97FB87F98058C6
:10329000B4CF81E0ACCF81E021CFCF93DF93EB01BE
:1032A00086319C4511F50E943C259A81992399F01D
:1032B0008A7A91E009F490E09093A003811109C00B
:1032C00089E20E9417250E947B2580E0DF91CF9143
:1032D000089585E3F6CF8091A003811104C089E2AF
:1032E0000E941E25F0CF85E3FBCF81E0EFCF109247
:1032F000B9008CE08093B8000895EF92FF920F938D
:103300001F93CF93DF93182FEB011092BC0084EA38
:103310008093BC000E9478277C018091BC0087FFCD
:1033200027C08091B900887F883029F08091B9004A
:10333000887F8031D9F51093BB0084E88093BC006E
:103340000E9478278C018091BC0087FF24C02091C7
:10335000B900287F90E080E02831B1F081E090E072
:10336000203411F490E080E09195819591090CC092
:10337000CF3FDC0791F20E9478278E199F098C17A6
:103380009D0758F28EEF9FEFDF91CF911F910F9124
:10339000FF90EF900895CF3FDC07A9F20E947827B5
:1033A000801B910B8C179D0770F2ECCF8FEF9FEF76
:1033B000EBCF0F931F93CF93DF93EB018093BB0071
:1033C00084E88093BC000E9478278C018091BC0027
:1033D00087FF11C02091B900287F81E090E028325A
:1033E00011F490E080E0919581959109DF91CF9162
:1033F0001F910F910895CF3FDC0741F30E9478277A
:10340000801B910B8C179D0708F38EEF9FEFEECF7B
:10341000CF92DF92EF92FF920F931F93CF93DF93A0
:103420006B018A017901B9010E947D19E6010C0D39
:103430001D1DC017D10761F424E92093BC00DF9162
:10344000CF911F910F91FF90EF90DF90CF90089553
:1034500097FDF2CFB70189910E94D919EACFCF9297
:10346000DF92EF92FF920F931F93CF93DF93C62FBC
:103470006A017901B8010E947D1997FD0CC0B8015D
:103480008C2F0E94D919E601EC0CFD1CCE15DF052E
:1034900011F097FF0CC024E92093BC00DF91CF917D
:1034A0001F910F91FF90EF90DF90CF900895B8019A
:1034B00089910E94D919EACF84E98093BC000895CC
:1034C0008EE14A9B02C08150E1F74A9BFECF0895EE
:1034D0005A9880E28A95F1F75A9A0895FC013BE0E8
:1034E0003A95F1F720E090E080E031E040E14A9544
:1034F000F1F7880F4A9B02C08160232742E04A957A
:10350000F1F7000040E14A95F1F79F5F6913EECFB4
:1035100090E19A95F1F799B132E03A95F1F7000010
:1035200040E14A95F1F792FB992790F99227208183
:10353000920F90830895EF92FF920F931F93CF9372
:10354000DF930F92CDB7DEB719828C017C01E60EB6
:10355000F11C0E151F0561F481E09981911180E045
:103560000F90DF91CF911F910F91FF90EF900895F1
:103570000E94601A68E0CE0101960E946E1AF8015E
:1035800081938F01E6CF9093A3038093A20360936E
:10359000A103529A5A9A08959093A3038093A20389
:1035A0006093A10352985A9AEA9AE9E6F0E0808182
:1035B0008F7C808308956150770B91E001C0990F53
:1035C0006A95EAF720E031E0911108C0222391F0DA
:1035D0005A9A80E28A95F1F75A980895492F48231C
:1035E00039F05A9A232740E24A95F1F79695ECCFA5
:1035F0005A98F9CF5A98EDCFFF920F931F93CF931C
:10360000DF93EC018C01060F111DC017D10731F4B7
:10361000DF91CF911F910F91FF900895F9900E9433
:10362000681A68E08F2D0E94DB1AEFCF1F920F926D
:103630000FB60F9211240F931F932F933F934F9325
:103640005F936F937F938F939F93AF93BF93EF930A
:10365000FF93CF93DF930F92CDB7DEB719820E940D
:10366000601A67E0CE0101960E946E1A082F069537
:1036700006950695982F92959570202F2570920F9C
:10368000292F2370969596958770920F891344C0C1
:103690008981811141C08091A1038017E8F120E167
:1036A0002A95F1F75A9A529A82E08A95F1F700C06A
:1036B000A8E00A9FC00111240091A2031091A30366
:1036C000080F191F5A98F8016581662321F0868139
:1036D00097810E94FC1A0E94681AF0E1FA95F1F7AE
:1036E0005A9852985A9A20E12A95F1F7D8011296E1
:1036F0006C911297662331F113968D919C910E94E3
:103700009B1AD801ED91FC91882311F088E001C04B
:1037100082E080830E94601A0F90DF91CF91FF9129
:10372000EF91BF91AF919F918F917F916F915F9139
:103730004F913F912F911F910F910F900FBE0F90BE
:103740001F901895ED91FC91E1CF0F931F93CF93AC
:10375000DF932091A103281719060CF471C08C0186
:1037600093E0000F111F9A95E1F7C091A203D09149
:10377000A303C00FD11FF894529A5A9825E02A95B6
:10378000F1F70000982F969595708570980F892F06
:10379000837096959695980F092B0E94681A00C021
:1037A00067E0802F0E94DB1A80E18A95F1F752983A
:1037B0005A9A4A9B17C087E090E04A9915C06D81DC
:1037C000662321F18E819F810E949B1A81111EC068
:1037D000529A5A9AE881F98182E08083789482E053
:1037E00090E00DC000C0E5CF019771F4529A5A9A4B
:1037F000E881F98181E08083789481E090E0DF9135
:10380000CF911F910F91089500C0D7CF0E94601AE9
:1038100020E22A95F1F75A98529A80E18A95F1F7B9
:103820006A81662321F08B819C810E94FC1A0E9490
:10383000681AE881F9811082789490E080E0DFCF07
:1038400084E090E0DCCF9093A9038093A8030895CF
:10385000E091A803F091A903309721F00190F08145
:10386000E02D099480E00895E091A803F091A90368
:10387000309721F00280F381E02D09940895209182
:10388000A6033091A7032817390771F09093A70377
:103890008093A603E091A803F091A903309721F04B
:1038A0000680F781E02D099408952091A4033091BA
:1038B000A5032817390771F09093A5038093A403FB
:1038C000E091A803F091A903309721F00084F185DD
:1038D000E02D0994089585B7806885BF85B7806815
:1038E00085BF0895089508950C94721C08950C9452
:1038F000761C0E946B1C0E94731C0C94741C0C940C
:10390000280B0E946F270E94EB0980E00E94DF14C1
:103910000E94D4270E94F3110E94F5130C94771C87
:10392000AF92BF92CF92DF92EF92FF920F931F93CD
:10393000CF93DF93CDB7DEB72A970FB6F894DEBFEB
:103940000FBECDBF0E946E0AB82E0E947F1C882336
:1039500009F468C08BEAC82E83E0D82E10E000E09E
:10396000A02E802F0E94DF09E82EF601F1906F0152
:10397000F81609F451C080912B0481FD0E94E509DD
:103980009F2D9E2580E0FF24F394292F2F2109F4F9
:103990003EC08E83AF82EF2081E009F480E088870B
:1039A0000E9478278160782F9A8789874E815F816E
:1039B00068858A850E94341DF801E555FC4F808199
:1039C000F826F0820E946A120E940F140E94531778
:1039D000B1100E9429160E94281C9091AA038917F1
:1039E00091F10E94281C8093AA032A960FB6F8949E
:1039F000DEBF0FBECDBFDF91CF911F910F91FF9022
:103A0000EF90DF90CF90BF90AF900C94A6078F5FA0
:103A1000FF0C863009F0B9CF0F5F1F4F0A30110538
:103A200009F09ECF8FEF89838A831B820E947827BB
:103A30008160782F9D838C8349815A816B818D8130
:103A40000E94341DBFCF2A960FB6F894DEBF0FBE7A
:103A5000CDBFDF91CF911F910F91FF90EF90DF903D
:103A6000CF90BF90AF900895CF93DF93CDB7DEB7DF
:103A70002B970FB6F894DEBF0FBECDBF4F8358878C
:103A800069877A878B871E821D8285E0FE013796C3
:103A9000DE01119601900D928A95E1F749815A81D4
:103AA0006B817C818D819E812B960FB6F894DEBF51
:103AB0000FBECDBFDF91CF910C94A822FC01808175
:103AC00091810C94E924CF93C82F882309F43FC037
:103AD0008CEF8C0F813AA0F46C2F80916E01909145
:103AE0006F010E949926882329F08C2F0E941E25A1
:103AF0000E947B258C2F0E941725CF910C947B254B
:103B000080E28C0F883048F4C77081E001C0880FD4
:103B1000CA95EAF70E943F25F0CFEBE5EC0FE330C2
:103B200040F4F0E0EE53FD4F808190E0CF910C9493
:103B30003F1CC85AC73158F4EC2FF0E0EE0FFF1FBE
:103B4000EC56FD4F80819181CF910C94551CCF9103
:103B50000895882329F19CEF980F913A20F40E9450
:103B60001E250C947B2590E2980F983050F48770B6
:103B700091E001C0990F8A95EAF7892F0E944525A7
:103B8000F0CF9BE5980F933020F490E080E00C9408
:103B90003F1C885A873120F490E080E00C94551C3B
:103BA0000895CF93C82F0E94631DC93349F42FEFA6
:103BB00087EE93E0215080409040E1F700C0000084
:103BC0008C2FCF910C94A91D882321F00E943F25B2
:103BD0000C947B250895882321F00E9445250C94A0
:103BE0007B250895BF92CF92DF92EF92FF920F93C1
:103BF0001F93CF93DF936C01D62FC72FFC01058154
:103C000002950F70128111110E945C250E943525CA
:103C1000E82E882391F01123E9F08C2F807F8034E7
:103C200021F080E28D0F8830A8F082E00E94C62546
:103C30000E94352591E0E82EE926BC2EB2949FE043
:103C4000B922FBE0FB15A8F1EB2DF0E0E251FD4CB1
:103C50000C94CB2EE12CF1CF0C2F0F70C07F11F004
:103C60000295007F1123A9F0002359F080E28D0F07
:103C7000883010F0D11109C0802F0E943F250E948A
:103C80007B258D2F0E94631D14C0802F0E944F251D
:103C9000F6CF8D2F0E94A91D002359F080E28D0FD1
:103CA000883010F0D1112CC0802F0E9445250E9431
:103CB0007B252B2D2850330B2430310520F40E9416
:103CC000281C0E94A607EE2009F483C10E9431251A
:103CD00080FD7FC1F60112820E942B250E94B42331
:103CE000C6010E940A200E942B25DF91CF911F91CF
:103CF0000F91FF90EF90DF90CF90BF900C94D52361
:103D0000802F0E945525D3CF2C2F2F70F22EC07FED
:103D1000C03219F0F29480EFF822DD2369F0D1303F
:103D200049F1112391F1002351F1F601858180FFC2
:103D3000A8CF8F70858323C0112381F0011106C0A5
:103D40000E9462258F290E94E41DB3CF0130C1F784
:103D50000E9462258F290E946825ABCF011106C001
:103D60000E9471258F2D0E94EB1DA3CF013009F415
:103D7000A0CFF6CF112329F0063008F09ACF8F2D6F
:103D8000E2CF053008F095CFEDCF002359F3D933BA
:103D900049F4FFEF27EE33E0F15020403040E1F7E7
:103DA00000C000008D2F0E94A91D83CF8C2F869507
:103DB0008695837069F0813009F07BCF8D2F9C2F21
:103DC0009370111102C090E080E00E94551C71CFE9
:103DD0008D2F9C2F9370111102C090E080E00E9403
:103DE0003F1C67CF8C2F837009F041C0111161CF48
:103DF0004D2F429546954770440F440F0D2F0F707D
:103E000010E030E020E0042E04C0000F111F221F3C
:103E1000331F0A94D2F760E070E0CB01D4FF0FC0EB
:103E20006FE070E080E090E004C0660F771F881FAD
:103E3000991F4A95D2F76095709580959095C69593
:103E4000C695C370602B712B822B932BC23049F027
:103E500058F4C13019F00E9466232BCF0E945423DE
:103E600028CF0E94782325CF0E94522322CF869507
:103E7000112311F08C2F8170882309F41ACF4D2F54
:103E8000429546954770440F440F0D2F0F7010E078
:103E900030E020E0042E04C0000F111F221F331F4A
:103EA0000A94D2F760E070E0CB01D4FF0FC06FE05E
:103EB00070E080E090E004C0660F771F881F991FB4
:103EC0004A95D2F76095709580959095C695C69560
:103ED000C370602B712B822B932BC23049F058F4A6
:103EE000C13019F00E942B24E4CE0E941924E1CEA7
:103EF0000E943D24DECE0E948E23DBCECF701123A4
:103F000029F08C2F0E94B4238D2F1DCF8D2F0E945E
:103F1000EB1D8C2F0E94D523CCCED23F89F160F4CB
:103F2000D03FC9F0D13F29F1112309F442C001115A
:103F3000A8CE8C2F8F7121C0D33F39F1D43FA1F788
:103F4000112369F1CF718C2F0E94B42363E08C2F71
:103F50000E94B125AECE112341F0053008F0A9CE64
:103F60008C2F8F710E94F823A4CE063008F0A1CECA
:103F7000F7CF8C2F8F71112369F20E94B42399CE51
:103F80008C2F8F711123C9F3C5CF112329F08C2FEA
:103F90008F710E949F238DCE0E949A238ACE81E04A
:103FA0000E94C625023008F484CE82E00E94C62515
:103FB00080CE002359F0D93309F0F4CE8FEF97EE7D
:103FC000E3E081509040E040E1F7EACE8C2F8F7122
:103FD000A1CFDF91CF911F910F91FF90EF90DF90D4
:103FE000CF90BF9008950F931F93CF93DF93EC0171
:103FF000688179818A810E94F3248C010E944F2478
:104000000E945123B801CE01DF91CF911F910F91F2
:104010000C94F21DCF93DF93EC018B819C81892B53
:1040200029F08881998189238F3F59F4DF91CF91BD
:104030000895CE010E94F31FCE01DF91CF910C9421
:104040007707CE010E94BE078111F3CF0E9435256C
:10405000882361F38A81882349F382E0DF91CF913D
:104060000C94C6250E945C250E945F250E947B253A
:1040700090E080E00E943F1C90E080E00C94551C92
:104080000E9425250C9432200E944C250C9440203F
:10409000E92FE295EF70E250EE3070F4F0E0E65078
:1040A000FD4C0C94CB2E803F19F020F4883E20F478
:1040B00081E00895843FE1F380E00895883EC0F3F5
:1040C000813FD1F7F5CF93FB882780F908950E94AF
:1040D000E9240C944820CF93DF9300D000D00F92B6
:1040E000CDB7DEB70F900F900F900F900F90DF912C
:1040F000CF910895CF93DF9300D000D000D0CDB7FB
:10410000DEB726960FB6F894DEBF0FBECDBFDF91A7
:10411000CF9108951F93CF93DF93C091B60316E01C
:104120008091B7038C1304C0DF91CF911F91089544
:10413000D0E01C9FF0011D9FF00D1124E854FC4FAE
:104140004081518162817381848195810E947A20AE
:104150002196C770E5CF4091E8035091E903609143
:10416000EA037091EB038091EC039091ED030C94C2
:104170007A201F93CF93DF938091ED03807FA9F482
:104180008091EA03882389F08091B603C091B70338
:104190006091E8037091E903A091EB03B091EC0307
:1041A000D62FD72316E0C81304C0DF91CF911F91FB
:1041B000089590E0109711F0DF3F19F40196877091
:1041C000F2CF189F9001199F300D1124F901E85486
:1041D000FC4F41814713F2CF40814613EFCF42811C
:1041E0004111ECCF438154814A1B5B0B443651058E
:1041F00028F78091ED038F7080618093ED03F901C2
:10420000E354FC4F80818F708061808388EE93E05F
:104210000E940A20DF91CF911F910C948A20AF92C7
:10422000BF92CF92DF92EF92FF920F931F93CF93A3
:10423000DF93CDB7DEB761970FB6F894DEBF0FBE40
:10424000CDBF8C0185E0F801DE011D9601900D9235
:104250008A95E1F7F80140815181E28088EEC82E0D
:1042600083E0D82E6091EB037091EC03611571052A
:1042700009F44FC19091E8032091E903892F82232B
:104280008F3F09F446C1A380B480F090EA03F501A2
:10429000E61BF70BFF2009F40AC18091ED03382FCC
:1042A000307FE436F10508F0C0C0311179C0FE2C32
:1042B000251323C0941321C0E1101FC08F708061AB
:1042C0008093ED030E94AB20C6010E940A208091DA
:1042D000ED03F80185838F2D61960FB6F894DEBF4C
:1042E0000FBECDBFDF91CF911F910F91FF90EF9047
:1042F000DF90CF90BF90AF900895AB2829F0842F26
:1043000085238F3F09F021C180E0F82FF170DF2E67
:1043100080FF3CC08091B6032091B70336E0821342
:1043200015C04D875E878D859E850E94E924292FC3
:1043300022952F702230F0F0243018F59F70F1F0A4
:10434000F8019581907FD1F4D12C1EC090E0389F68
:10435000F001399FF00D1124E854FC4F6181651381
:1043600006C06081641303C062816E110FC00196A4
:104370008770D5CF9F7011F0882331F3805E88302D
:1043800018F3C8010E940A20FD2CA5CFEE2009F4E5
:10439000A2CF8091ED0381608093ED03F12C9BCF40
:1043A000251314C0941312C0E11010C0F8018583C6
:1043B000C8010E940A2086E0F801A8EEB3E001904F
:1043C0000D928A95E1F70E94AB2085CF4D875E87DD
:1043D0008D859E850E946720882319F1EE2009F1C2
:1043E0008091ED03803270F02091E8033091E90371
:1043F00038872F831986BB86AA868C87CE010796BD
:104400000E940A2086E0F801A8EEB3E001900D9228
:104410008A95E1F70E94B9200E94AB20FF24F39413
:104420005ACFC8010E940A20F9CF311113C07A2D4A
:10443000B98AA88A6E2D89890E946B2088EE93E044
:104440000E940A2086E0F60111928A95E9F70E94FF
:10445000AB20A4CF25130FC094130DC0E1100BC0E7
:10446000F8018583C8010E940A2086E0F6011192B6
:104470008A95E9F730CF4D875E878D859E850E94AE
:104480006720882371F2EE2061F28091ED03803283
:1044900008F4B8CF2091E8033091E9033A832983E7
:1044A0001B82BD82AC828E83CE010196A9CFE436F9
:1044B000F10510F5FE2CEE2009F4B3CF25130BC047
:1044C000941309C086E0F801A8EEB3E001900D92C4
:1044D0008A95E1F700CF4D875E878D859E850E9486
:1044E000672081118FCF8091ED0381608093ED0370
:1044F000C8010E940A20EFCE7A2DB98AA88A6E2DB3
:1045000089890E946B2086E0F60111928A95E9F76D
:104510005ACFEE2009F485CF4D875E878D859E8525
:104520000E946720F82E882309F47BCF86E0F801EB
:10453000A8EEB3E001900D928A95E1F788EE93E042
:104540000E945E1D0E94B9203ECF81E08E25DDCE07
:104550001F93CF93DF93CDB7DEB72C970FB6F894A8
:10456000DEBF0FBECDBF4F83588769877A878B87A1
:104570009C87CE0107960E940F21882369F08A85C7
:104580009B85892B39F04F815885842F85238F3F58
:1045900009F071C016E05FC086E0FE013796DE01CB
:1045A000119601900D928A95E1F78A859B85892B5A
:1045B00089F38F81988589238F3F61F32091B70319
:1045C00030E0C9010196877099274091B6034817DA
:1045D000190671F40E9444201092B7031092B6039A
:1045E00086E0E8EEF3E0DF011D928A95E9F7D2CF8D
:1045F00096E0929FD001939FB00D1124A854BC4F18
:10460000FE01319601900D929A95E1F78093B703E0
:104610000E948A20BFCF819FC001112488549C4FE3
:104620000E940F218823E9F0E091B6031E9FF0015C
:104630001124E854FC4F408151816281738184814F
:1046400095810E947A208091B60390E00196877050
:1046500099278093B6038091B6039091B70389138D
:10466000DACF2C960FB6F894DEBF0FBECDBFDF9128
:10467000CF911F91089569857A858B859C850E94CD
:104680007A2088CF08950C9442230E94432360939C
:104690001A0470931B0480931C0490931D040C94C3
:1046A000322008950C9445230F931F9300911A0410
:1046B00010911B0420911C0430911D04602B712B60
:1046C000822B932B1F910F910C9445230F931F93D3
:1046D00000911A0410911B0420911C0430911D04B8
:1046E00060237123822393231F910F910C94452300
:1046F0000F931F9300911A0410911B0420911C0426
:1047000030911D0460277127822793271F910F91F5
:104710000C9445230C9442230C948A230E948C23EE
:1047200060931604709317048093180490931904EF
:104730000C94322060E070E0CB010C948E230F9338
:104740001F9341E050E060E070E08A019B0104C0EB
:10475000000F111F221F331F8A95D2F7C901B8011C
:104760001F910F910C948E230F931F9341E050E003
:1047700060E070E004C0440F551F661F771F8A95E4
:10478000D2F78091160490911704A0911804B0916B
:1047900019048A019B01082B192B2A2B3B2BC901D9
:1047A000B8011F910F910C948E230F931F9341E03A
:1047B00050E060E070E004C0440F551F661F771F93
:1047C0008A95D2F7CB01BA01609570958095909546
:1047D00000911604109117042091180430911904C7
:1047E00060237123822393231F910F910C948E23B6
:1047F0000F931F9341E050E060E070E004C0440F6D
:10480000551F661F771F8A95D2F7809116049091E5
:104810001704A0911804B09119048A019B0108277C
:1048200019272A273B27C901B8011F910F910C9422
:104830008E230F931F93009116041091170420915B
:10484000180430911904602B712B822B932B1F912C
:104850000F910C948E230F931F93009116041091C7
:1048600017042091180430911904602371238223C6
:1048700093231F910F910C948E230F931F930091FC
:104880001604109117042091180430911904602720
:104890007127822793271F910F910C948E230895DF
:1048A000E92FEE0FE90FEE0F8E0F982F977041E072
:1048B00001C0440F9A95EAF786958695869595E00E
:1048C000899FF0011124E251FC4F30E020E070E0BC
:1048D0005191DF011197CB01022E02C09695879569
:1048E0000A94E2F7817081958527842385278C932C
:1048F0002F5F3F4F2530310559F70895E92FEE0F0F
:10490000E90FEE0F8E0F982F9770869586958695F6
:1049100025E0829FF0011124E251FC4F50E040E07D
:1049200080E0219130E0092E02C0369527950A9447
:10493000E2F721703327042E01C0220F0A94EAF710
:10494000822B4F5F5F4F4530510559F70895BF9255
:10495000CF92DF92EF92FF920F931F93CF93DF934B
:104960008C01C0901604D0901704E0901804F090C9
:10497000190480911A0490911B04A0911C04B09119
:104980001D04C82AD92AEA2AFB2ACFE1D0E0BC2E8E
:10499000D701C6010C2E04C0B695A79597958795AB
:1049A0000A94D2F780FD0EC0219788F7B12C8B2D89
:1049B000DF91CF911F910F91FF90EF90DF90CF90FB
:1049C000BF900895B8018C2F0E941408019761F3DD
:1049D000EECFCF93DF93EC010E94A724BE01DF91BD
:1049E000CF910C9414081F93CF93DF93EB01909118
:1049F000B503992331F0CB01DF91CF911F910C9436
:104A0000E924882379F0CB010E94A724182F682F6E
:104A1000CE010E945024BE01812FDF91CF911F91C2
:104A20000C941408CB010E947E24182FF4CF682F19
:104A300080916E0190916F010C94CF26682F809128
:104A40006E0190916F010C94D12680916E0190912E
:104A50006F010C94D32680911E04859585958595CC
:104A6000089580911E048770089590911E04977098
:104A700081E009F480E0089580912A0408959091DE
:104A80002A04892B80932A040895809590912A0402
:104A9000982390932A04089510922A0408959091DF
:104AA0002904892B809329040895809590912904E5
:104AB0009823909329040895109229040895109240
:104AC0002804089580911F04089508950C94652585
:104AD00090911F04981721F080931F040C94662571
:104AE000089580911F04882329F010921F0480E00C
:104AF0000C9466250895E0916E01F0916F0180910C
:104B00002A048083E0916E01F0916F018081909181
:104B10002904892B8083E0916E01F0916F018081DF
:104B200090912804892B808390911F04992381F010
:104B3000E0916E01F0916F018081892B80838091DB
:104B40006E0190916F010E94872681110E9471254C
:104B500080916E0190916F010C94341C08950C9417
:104B6000AE2598E0899F90011124622B60931E046A
:104B70000E94B42380911E048595859585950C949B
:104B8000AF2510921E0480E00C94AF2590911E0476
:104B90008095892380931E04282F277071F4282F75
:104BA000082E000C330B9217130639F08595859566
:104BB00085950E94D5230C94C125089590E080E04E
:104BC0000E94043221E08C3E9E4F09F020E0822FAB
:104BD000089582E090E00C94F63183E090E00C942C
:104BE000F631682F83E090E00C940A32CF9384E092
:104BF00090E00E94F631C82F81E290E00E94F631E9
:104C0000982F8C2FCF910895CF93C92F682F84E0D0
:104C100090E00E940A326C2F81E290E0CF910C94D8
:104C20000A32AB01BC018FE090E00C941C32AB0166
:104C3000BC0183E190E00C941C3260E070E0CB0199
:104C40000C94172660E070E0CB010E9411260C94B2
:104C50001D266CEE7EEF90E080E00E94283260E03E
:104C600082E090E00E940A3260E083E090E00E94DF
:104C70000A3210921A0410921B0410921C04109213
:104C80001D0460E084E090E00E940A3260E081E26E
:104C900090E00E940A3260E085E090E00E940A32D3
:104CA00060E086E090E00E940A326FEF87E090E0DB
:104CB0000E940A3240E050E0BA0188E090E00E9491
:104CC0001C3260E08DE090E00E940A3240E050E04B
:104CD000BA0188E190E00E941C3260E087E190E038
:104CE0000E940A3240E050E0BA018CE190E00E945C
:104CF0001C3260E080E290E00E940A320C9422268E
:104D00000C942926682F8EE090E00C940A329C01C6
:104D10002E5F3F4FAC01485F5F4F80E0241735079F
:104D200009F40895F90191919F019923B9F38F5FD7
:104D3000F5CF662349F0FC0132960896219126179B
:104D400029F0E817F907D1F780E0089581E0089588
:104D50009C01FC0132969FEF80E04191461751F093
:104D60009F3F19F4411101C0982F8F5F8630A9F73A
:104D70009F3F09F40895290F311D97FD3A95F901D8
:104D800062830895FC01329608962191261303C090
:104D9000DF0111971C92E817F907B9F708950C94F1
:104DA000A8260C94C226029626E0FC0111922A95B0
:104DB000E9F70895089508950C94DB260E94DC26F7
:104DC0008091AF06843009F439C010922C0488E138
:104DD00090E020E40FB6F894A895809360000FBE91
:104DE0002093600080E00E94A6070E9468128091D4
:104DF0002D0481110AC081E080932D0480916A0402
:104E0000817080932E040E9435110E94DC2683B7A6
:104E1000817F846083BF83B7816083BF78948895E6
:104E200083B78E7F83BF0FB6F894A89580916000FA
:104E3000886180936000109260000FBE089508950D
:104E4000CF930E94DA260E946E0A0E941F27C0E0BC
:104E50008C2F0E94DF09811105C0CF5FCA30C1F7D6
:104E6000CF91089581E0FCCF08950C9434270E94DF
:104E700044200E94281C0E94A60710922D048091B5
:104E80002E0481110E942B120E9469110C94352767
:104E90001F921FB61F9211248F939F93AF93BF93BE
:104EA00080912C04811113C08091A5069091A606D3
:104EB000A091A706B091A8064196A11DB11D8093AF
:104EC000A5069093A606A093A706B093A806BF9147
:104ED000AF919F918F911F901FBE1F90189582E0F8
:104EE00084BD93E095BD9AEF97BD80936E000895C1
:104EF0002FB7F8948091A5069091A606A091A706D9
:104F0000B091A8062FBF08952FB7F8946091A50619
:104F10007091A6068091A7069091A8062FBF0895CC
:104F20009C014FB7F8948091A5069091A606A09198
:104F3000A706B091A8064FBF821B930B08957894E3
:104F40001F921FB61F9211248F939F93AF93BF930D
:104F50008091A5069091A606A091A706B091A806FB
:104F60000196A11DB11D8093A5069093A606A0935E
:104F7000A706B093A806BF91AF919F918F911F9004
:104F80001FBE1F90189587E797E7909301088093BD
:104F9000000888E19AE00FB6F894A8958093600025
:104FA0000FBE90936000FFCF0E94DE25811102C0EA
:104FB0000E9480260E94E92580932B040E94F625FA
:104FC0009093AA068093A9060E94ED25682F70E0B1
:104FD00090E080E00C945223809137040895089566
:104FE000CF93DF9300D00F92CDB7DEB79091AF068D
:104FF000943019F589837B836A8382E08093E9008A
:105000008FEF9091E800815095FD06C095ED9A953F
:10501000F1F700008111F5CF8091E80085FF0DC008
:1050200050E040E063E070E0CE0101960E94062A65
:105030008091E8008E778093E8000F900F900F909A
:10504000DF91CF910895CF93DF93EC010E94E9297E
:10505000823011F0843031F4BE0184E0DF91CF91D1
:105060000C94F027DF91CF910895BC0183E00C945C
:10507000F027CF93DF93EC010E94E929823011F0F1
:10508000843039F581E08093E9008FEF9091E8005A
:10509000815095FD06C095ED9A95F1F700008111BC
:1050A000F5CF8091E80085FF14C050E040E068E053
:1050B00070E0CE010E94062A8091E8008E778093EE
:1050C000E80088E0FE01AFE2B4E001900D928A951D
:1050D000E1F7DF91CF9108958091AE06811109C06B
:1050E0000E94962B0E94F32B8091E20084608093B3
:1050F000E20008951092AE060895089508950C9464
:10510000372742E061EC81E00E94122B42E261EC21
:1051100082E00C94122B8091B106833009F45FC0B9
:1051200030F48130C1F1823009F49BC008958A3097
:1051300009F487C08B3009F46DC0893009F04EC086
:105140008091B006813209F049C08091B4069091F7
:10515000B506029708F042C08091E800877F8093EF
:10516000E8008091E80082FF35C09091F3008091C3
:10517000F200029729F48091F1008B7F813021F4B5
:105180008091F100809337048091E8008B778093C1
:10519000E8000C94462B8091B006813AF9F4809196
:1051A000E800877F8093E8008091B4069091B5066F
:1051B000892B61F468E08FE294E070E00E94552A48
:1051C0008091E8008B778093E800089560E090E09C
:1051D00080E0F3CF8091AF068111C3CF0895809115
:1051E000B006813AD9F78091B4069091B506892B23
:1051F000A9F78091E800877F8093E8008091E8001C
:1052000080FFFCCF80917A018093F1008091E800CB
:105210008E77BDCF8091B006813201F78091B406C0
:105220009091B506892BD1F68091E800877F809315
:10523000E8000E94462B8091B20680937A010C947C
:1052400044208091B006813249F68091E800877F42
:105250008093E8000E94462B8091B3068093380427
:1052600008958091B006813A09F0B8CF8091E800A6
:10527000877F8093E8008091E80080FFFCCF8091D9
:105280003804C2CF84B7877F84BF0FB6F894A8953F
:1052900080916000886180936000109260000FBE72
:1052A00080E890E00FB6F8948093610090936100DD
:1052B0000FBE0E94791C0E94962B0E94F32B8091B6
:1052C000E20084608093E20078940E947C2E0E9429
:1052D000811C80E791E00E94231C8091AF068530FD
:1052E00019F00E94901CF9CF0E94DE268091AD0635
:1052F000882399F30E942027882379F30E94F029BC
:10530000ECCF0C948329292F33272330310519F151
:1053100068F42130310509F44AC02230310509F41E
:105320004BC090E080E030E020E028C02132310521
:1053300079F122323105A9F780E490E027EB3AE0D9
:1053400061157105D9F082E390E025E83AE061301B
:105350007105A1F0E6CF99278130910599F000976A
:1053600041F08230910589F00397D9F6EAE0FAE03E
:1053700002C0E4E3FAE0849190E09F01FA013183F6
:1053800020830895E0E2FAE0F6CFE0E1FAE0F3CF1F
:1053900089E090E02AE43AE06115710579F389E04B
:1053A00090E023E63AE06130710541F3BACF82E143
:1053B00090E023E73AE0E2CF8BE390E028E33AE0A5
:1053C000DDCF8091AF06843011F482E0089581E052
:1053D000089580913904811102C00C94E129089547
:1053E00080E189BD82E189BD09B400FEFDCF8091D5
:1053F000D8008F7D8093D8008091E00082608093F8
:10540000E0008091E00081FDFCCF0895AF92BF9253
:10541000CF92DF92FF920F931F93CF93DF936C0194
:10542000EB018A010E94652BF82E811123C0011522
:10543000110539F0F80180819181C81BD90BC80E84
:10544000D91EB12CA12C2097A9F08091E80085FDF0
:1054500022C08091E8008E778093E8000115110545
:10546000A1F0F80180819181A80EB91EB182A082BD
:1054700085E0F82E8F2DDF91CF911F910F91FF9036
:10548000DF90CF90BF90AF9008950E94652B882346
:10549000D1F2F82EEFCFF60181916F018093F100E8
:1054A0002197FFEFAF1ABF0ACECFFC018091B6065D
:1054B0009091B70686179707A0F06115710529F43A
:1054C0009091E8009E779093E80090E06115710557
:1054D00051F4911108C08091E80082FF34C080E04F
:1054E0000895BC01F2CF8091AF068823C1F18530C9
:1054F000C1F18091E80083FD30C08091E80082FD19
:10550000EACF8091E80080FFE1CF8091F300209105
:10551000F200382F6115710519F02830310558F067
:1055200091E02830310509F090E02091E8002E77D5
:105530002093E800CBCF81918093F10061507109F5
:105540002F5F3F4FE7CF8091AF06882341F0853032
:1055500041F08091E80083FFBECF81E0089582E0B2
:10556000089583E00895FC018091B6069091B706F6
:1055700086179707A0F06115710529F48091E8005E
:105580008E778093E80090E06115710551F49111D8
:1055900008C08091E80082FF35C080E00895BC011A
:1055A000F2CF8091AF068823C9F18530C9F180918F
:1055B000E80083FD31C08091E80082FDEACF809150
:1055C000E80080FFE1CF8091F3002091F200382FB6
:1055D0006115710519F02830310558F091E0283037
:1055E000310509F090E08091E8008E778093E80023
:1055F000CBCF84918093F1003196615071092F5F78
:105600003F4FE6CF8091AF06882341F0853041F0CF
:105610008091E80083FFBDCF81E0089582E0089586
:1056200083E00895982F973028F08F708093E900D9
:1056300081E008959093E900242F762F50E0981789
:1056400031F07091EC002091ED005091F00021FDBF
:1056500002C09F5FE8CF3091EB003E7F3093EB00BC
:105660003091ED003D7F3093ED003091EB003160E3
:105670003093EB007093EC002093ED005093F0001A
:105680002091EE0027FDE5CF80E008958091B006DF
:1056900087FF13C08091E80082FF06C08091E80078
:1056A0008B778093E80004C08091AF068111F2CF20
:1056B00008958091AF068823D9F38091E80080FF98
:1056C000F8CF8091E8008E77ECCF2091E400309104
:1056D000E50095E6A9012091EC00822F817020FF62
:1056E00006C08091E80080FF06C080E00895209108
:1056F000E80022FD1AC08091AF06882389F085302A
:1057000089F08091EB0085FD0FC02091E40030917D
:10571000E50042175307F9F29150E1F684E008954D
:1057200082E0089583E0089581E008950E94042CAA
:105730000E940C2CE0EEF0E0808181608083E8ED37
:10574000F0E080818F77808319BCA7EDB0E08C9169
:105750008E7F8C9380818F7E80831092AE06089519
:105760000F931F93CF93DF930E94042C0E940C2C65
:10577000C8EDD0E088818F778883888180688883AE
:1057800088818F7D888319BC1092AF061092AB067A
:105790001092AD061092AC0600EE10E0F801808188
:1057A0008B7F808388818160888342E060E080E035
:1057B0000E94122BE1EEF0E080818E7F8083E2EE8A
:1057C000F0E0808181608083808188608083F8013F
:1057D00080818E7F8083888180618883DF91CF91F3
:1057E0001F910F910895E8EDF0E080818F7E808316
:1057F000E7EDF0E080818160808384E082BF81E01A
:105800008093AE060C94B02BE8EDF0E080818E7FA3
:1058100080831092E20008951092DA001092E10065
:1058200008951F920F920FB60F9211242F933F935A
:105830004F935F936F937F938F939F93AF93BF9398
:10584000EF93FF938091E10082FF0BC08091E20013
:1058500082FF07C08091E1008B7F8093E1000E946E
:105860007B2E8091DA0080FF19C08091D80080FFE4
:1058700015C08091DA008E7F8093DA008091D90084
:1058800080FF96C080E189BD82E189BD09B400FE38
:10589000FDCF81E08093AF060E946C288091E100EB
:1058A00080FF19C08091E20080FF15C08091E20066
:1058B0008E7F8093E2008091E20080618093E2001D
:1058C0008091D80080628093D80019BC85E08093D5
:1058D000AF060E947E288091E10084FF2BC080915A
:1058E000E20084FF27C080E189BD82E189BD89B5DE
:1058F000982F917080FFFBCF8091D8008F7D80938F
:10590000D8008091E1008F7E8093E1008091E200D9
:105910008F7E8093E2008091E20081608093E200BC
:105920008091AB06882309F449C084E08093AF06D8
:105930000E947F288091E10083FF29C08091E200CE
:1059400083FF25C08091E100877F8093E10082E0A2
:105950008093AF061092AB068091E1008E7F80931A
:10596000E1008091E2008E7F8093E2008091E2006E
:1059700080618093E20042E060E080E00E94122BB0
:105980008091F00088608093F0000E947D28FF9154
:10599000EF91BF91AF919F918F917F916F915F91A7
:1059A0004F913F912F910F900FBE0F901F90189520
:1059B00019BC1092AF060E947A2870CF8091E30044
:1059C00087FD93E09093AF06B3CF1F920F920FB66F
:1059D0000F9211242F933F934F935F936F937F9375
:1059E0008F939F93AF93BF93CF93DF93EF93FF93E7
:1059F000D091E900DF708091EC00C82FC17080FD6C
:105A0000C0E81092E9008091F000877F8093F00059
:105A100078940E94292D1092E9008091F00088600E
:105A20008093F000CD2BCF70C093E900FF91EF91F0
:105A3000DF91CF91BF91AF919F918F917F916F91A6
:105A40005F914F913F912F910F900FBE0F901F903C
:105A500018951F93CF93DF93CDB7DEB7AA970FB6F4
:105A6000F894DEBF0FBECDBF80EB96E02091F10031
:105A7000FC012193CF01F6E0883B9F07B9F70E9414
:105A80008B288091E80083FF1EC18091B006909121
:105A9000B1069A3008F017C1E92FF0E0E85FFC4C3E
:105AA0000C94CB2E803899F0823809F00CC180918B
:105AB000B4068F70873008F006C18093E9008091AA
:105AC000EB0085FB882780F91092E90006C08091E1
:105AD000AC069091AD06911182609091E800977F9D
